{
  "_format": "hh-sol-artifact-1",
  "contractName": "CeloAuthorityState",
  "sourceName": "contracts/CeloAuthorityState.sol",
  "abi": [
    {
      "inputs": [],
      "stateMutability": "nonpayable",
      "type": "constructor"
    },
    {
      "anonymous": false,
      "inputs": [
        {
          "indexed": true,
          "internalType": "address",
          "name": "agent",
          "type": "address"
        },
        {
          "indexed": false,
          "internalType": "enum CeloAuthorityState.AuthorityLevel",
          "name": "from",
          "type": "uint8"
        },
        {
          "indexed": false,
          "internalType": "enum CeloAuthorityState.AuthorityLevel",
          "name": "to",
          "type": "uint8"
        }
      ],
      "name": "AuthorityDecayed",
      "type": "event"
    },
    {
      "anonymous": false,
      "inputs": [
        {
          "indexed": true,
          "internalType": "address",
          "name": "agent",
          "type": "address"
        },
        {
          "indexed": false,
          "internalType": "enum CeloAuthorityState.AuthorityLevel",
          "name": "level",
          "type": "uint8"
        },
        {
          "indexed": false,
          "internalType": "uint256",
          "name": "creditLimit",
          "type": "uint256"
        }
      ],
      "name": "AuthorityGranted",
      "type": "event"
    },
    {
      "anonymous": false,
      "inputs": [
        {
          "indexed": true,
          "internalType": "address",
          "name": "agent",
          "type": "address"
        },
        {
          "indexed": false,
          "internalType": "bytes32",
          "name": "evidenceRef",
          "type": "bytes32"
        }
      ],
      "name": "AuthorityRevoked",
      "type": "event"
    },
    {
      "anonymous": false,
      "inputs": [
        {
          "indexed": true,
          "internalType": "address",
          "name": "agent",
          "type": "address"
        },
        {
          "indexed": false,
          "internalType": "address",
          "name": "borrower",
          "type": "address"
        },
        {
          "indexed": false,
          "internalType": "uint256",
          "name": "amount",
          "type": "uint256"
        }
      ],
      "name": "MicroLoanIssued",
      "type": "event"
    },
    {
      "inputs": [],
      "name": "CUSD",
      "outputs": [
        {
          "internalType": "address",
          "name": "",
          "type": "address"
        }
      ],
      "stateMutability": "view",
      "type": "function"
    },
    {
      "inputs": [
        {
          "internalType": "address",
          "name": "",
          "type": "address"
        },
        {
          "internalType": "uint256",
          "name": "",
          "type": "uint256"
        }
      ],
      "name": "agentHistory",
      "outputs": [
        {
          "internalType": "bytes32",
          "name": "",
          "type": "bytes32"
        }
      ],
      "stateMutability": "view",
      "type": "function"
    },
    {
      "inputs": [
        {
          "internalType": "address",
          "name": "",
          "type": "address"
        }
      ],
      "name": "authorities",
      "outputs": [
        {
          "internalType": "enum CeloAuthorityState.AuthorityLevel",
          "name": "level",
          "type": "uint8"
        },
        {
          "internalType": "bytes32",
          "name": "scope",
          "type": "bytes32"
        },
        {
          "internalType": "uint256",
          "name": "expiresAt",
          "type": "uint256"
        },
        {
          "internalType": "uint256",
          "name": "lastActivity",
          "type": "uint256"
        },
        {
          "internalType": "bool",
          "name": "isActive",
          "type": "bool"
        },
        {
          "internalType": "uint256",
          "name": "creditLimit",
          "type": "uint256"
        }
      ],
      "stateMutability": "view",
      "type": "function"
    },
    {
      "inputs": [
        {
          "internalType": "address",
          "name": "agent",
          "type": "address"
        },
        {
          "internalType": "enum CeloAuthorityState.AuthorityLevel",
          "name": "required",
          "type": "uint8"
        }
      ],
      "name": "checkAuthority",
      "outputs": [
        {
          "internalType": "bool",
          "name": "hasAuthority",
          "type": "bool"
        },
        {
          "internalType": "enum CeloAuthorityState.AuthorityLevel",
          "name": "current",
          "type": "uint8"
        }
      ],
      "stateMutability": "view",
      "type": "function"
    },
    {
      "inputs": [
        {
          "internalType": "address",
          "name": "agent",
          "type": "address"
        }
      ],
      "name": "getAgentHistory",
      "outputs": [
        {
          "internalType": "bytes32[]",
          "name": "",
          "type": "bytes32[]"
        }
      ],
      "stateMutability": "view",
      "type": "function"
    },
    {
      "inputs": [
        {
          "internalType": "address",
          "name": "agent",
          "type": "address"
        },
        {
          "internalType": "enum CeloAuthorityState.AuthorityLevel",
          "name": "level",
          "type": "uint8"
        },
        {
          "internalType": "bytes32",
          "name": "scope",
          "type": "bytes32"
        },
        {
          "internalType": "uint256",
          "name": "duration",
          "type": "uint256"
        },
        {
          "internalType": "uint256",
          "name": "creditLimit",
          "type": "uint256"
        }
      ],
      "name": "grantAuthority",
      "outputs": [
        {
          "internalType": "bytes32",
          "name": "transitionId",
          "type": "bytes32"
        }
      ],
      "stateMutability": "nonpayable",
      "type": "function"
    },
    {
      "inputs": [
        {
          "internalType": "address",
          "name": "borrower",
          "type": "address"
        },
        {
          "internalType": "uint256",
          "name": "amount",
          "type": "uint256"
        }
      ],
      "name": "issueMicroLoan",
      "outputs": [
        {
          "internalType": "bytes32",
          "name": "loanId",
          "type": "bytes32"
        }
      ],
      "stateMutability": "nonpayable",
      "type": "function"
    },
    {
      "inputs": [],
      "name": "owner",
      "outputs": [
        {
          "internalType": "address",
          "name": "",
          "type": "address"
        }
      ],
      "stateMutability": "view",
      "type": "function"
    },
    {
      "inputs": [],
      "name": "totalTransitions",
      "outputs": [
        {
          "internalType": "uint256",
          "name": "",
          "type": "uint256"
        }
      ],
      "stateMutability": "view",
      "type": "function"
    },
    {
      "inputs": [
        {
          "internalType": "bytes32",
          "name": "",
          "type": "bytes32"
        }
      ],
      "name": "transitions",
      "outputs": [
        {
          "internalType": "bytes32",
          "name": "id",
          "type": "bytes32"
        },
        {
          "internalType": "address",
          "name": "agent",
          "type": "address"
        },
        {
          "internalType": "enum CeloAuthorityState.AuthorityLevel",
          "name": "fromLevel",
          "type": "uint8"
        },
        {
          "internalType": "enum CeloAuthorityState.AuthorityLevel",
          "name": "toLevel",
          "type": "uint8"
        },
        {
          "internalType": "bytes32",
          "name": "evidenceRef",
          "type": "bytes32"
        },
        {
          "internalType": "uint256",
          "name": "timestamp",
          "type": "uint256"
        }
      ],
      "stateMutability": "view",
      "type": "function"
    }
  ],
  "bytecode": "0x608060405234801561001057600080fd5b5033600460006101000a81548173ffffffffffffffffffffffffffffffffffffffff021916908373ffffffffffffffffffffffffffffffffffffffff160217905550611712806100616000396000f3fe608060405234801561001057600080fd5b506004361061009e5760003560e01c80638da5cb5b116100665780638da5cb5b1461018157806391223d691461019f578063b214b72d146101d4578063bc28d955146101f2578063e05472df146102275761009e565b8063447e4b8a146100a3578063454834eb146100d357806363a6d3421461010357806365a5854a14610133578063758316c914610163575b600080fd5b6100bd60048036038101906100b89190610d7f565b610258565b6040516100ca9190610dd8565b60405180910390f35b6100ed60048036038101906100e89190610df3565b6104a3565b6040516100fa9190610ede565b60405180910390f35b61011d60048036038101906101189190610f51565b6105a9565b60405161012a9190610dd8565b60405180910390f35b61014d60048036038101906101489190610d7f565b610857565b60405161015a9190610dd8565b60405180910390f35b61016b610888565b6040516101789190610fdb565b60405180910390f35b6101896108a0565b6040516101969190610fdb565b60405180910390f35b6101b960048036038101906101b49190610df3565b6108c6565b6040516101cb96959493929190611097565b60405180910390f35b6101dc61091c565b6040516101e991906110f8565b60405180910390f35b61020c60048036038101906102079190611113565b610922565b60405161021e96959493929190611140565b60405180910390f35b610241600480360381019061023c91906111a1565b610998565b60405161024f9291906111e1565b60405180910390f35b60008073ffffffffffffffffffffffffffffffffffffffff168373ffffffffffffffffffffffffffffffffffffffff16036102c8576040517f08c379a00000000000000000000000000000000000000000000000000000000081526004016102bf90611267565b60405180910390fd5b60008060003373ffffffffffffffffffffffffffffffffffffffff1673ffffffffffffffffffffffffffffffffffffffff168152602001908152602001600020905060038081111561031d5761031c610ff6565b5b8160000160009054906101000a900460ff16600381111561034157610340610ff6565b5b14610381576040517f08c379a0000000000000000000000000000000000000000000000000000000008152600401610378906112d3565b60405180910390fd5b8060040160009054906101000a900460ff166103d2576040517f08c379a00000000000000000000000000000000000000000000000000000000081526004016103c99061133f565b60405180910390fd5b8060050154831115610419576040517f08c379a0000000000000000000000000000000000000000000000000000000008152600401610410906113ab565b60405180910390fd5b338484426003546040516020016104349594939291906113cb565b6040516020818303038152906040528051906020012091503373ffffffffffffffffffffffffffffffffffffffff167fdb1dba94adbeefdd86c48588208ff7676cd9357b8388f555ae3203467c81cad4858560405161049492919061141e565b60405180910390a25092915050565b6060600073ffffffffffffffffffffffffffffffffffffffff168273ffffffffffffffffffffffffffffffffffffffff1603610514576040517f08c379a000000000000000000000000000000000000000000000000000000000815260040161050b90611493565b60405180910390fd5b600260008373ffffffffffffffffffffffffffffffffffffffff1673ffffffffffffffffffffffffffffffffffffffff16815260200190815260200160002080548060200260200160405190810160405280929190818152602001828054801561059d57602002820191906000526020600020905b815481526020019060010190808311610589575b50505050509050919050565b6000600460009054906101000a900473ffffffffffffffffffffffffffffffffffffffff1673ffffffffffffffffffffffffffffffffffffffff163373ffffffffffffffffffffffffffffffffffffffff161461063b576040517f08c379a0000000000000000000000000000000000000000000000000000000008152600401610632906114ff565b60405180910390fd5b600073ffffffffffffffffffffffffffffffffffffffff168673ffffffffffffffffffffffffffffffffffffffff16036106aa576040517f08c379a00000000000000000000000000000000000000000000000000000000081526004016106a190611493565b60405180910390fd5b600060038111156106be576106bd610ff6565b5b8560038111156106d1576106d0610ff6565b5b03610711576040517f08c379a00000000000000000000000000000000000000000000000000000000081526004016107089061156b565b60405180910390fd5b60008060008873ffffffffffffffffffffffffffffffffffffffff1673ffffffffffffffffffffffffffffffffffffffff1681526020019081526020016000209050610773878260000160009054906101000a900460ff16886000801b610ac3565b9150858160000160006101000a81548160ff0219169083600381111561079c5761079b610ff6565b5b0217905550848160010181905550600084116107b95760006107c6565b83426107c591906115ba565b5b816002018190555042816003018190555060018160040160006101000a81548160ff0219169083151502179055508281600501819055508673ffffffffffffffffffffffffffffffffffffffff167f5ef6f5aa214280c4bf6e58379b1f69f0e4e5fbdb72d902c3371eafebd93b7ce987856040516108459291906115ee565b60405180910390a25095945050505050565b6002602052816000526040600020818154811061087357600080fd5b90600052602060002001600091509150505481565b73874069fa1eb16d44d622f2e0ca25eea172369bc181565b600460009054906101000a900473ffffffffffffffffffffffffffffffffffffffff1681565b60006020528060005260406000206000915090508060000160009054906101000a900460ff16908060010154908060020154908060030154908060040160009054906101000a900460ff16908060050154905086565b60035481565b60016020528060005260406000206000915090508060000154908060010160009054906101000a900473ffffffffffffffffffffffffffffffffffffffff16908060010160149054906101000a900460ff16908060010160159054906101000a900460ff16908060020154908060030154905086565b600080600073ffffffffffffffffffffffffffffffffffffffff168473ffffffffffffffffffffffffffffffffffffffff1603610a0a576040517f08c379a0000000000000000000000000000000000000000000000000000000008152600401610a0190611493565b60405180910390fd5b60008060008673ffffffffffffffffffffffffffffffffffffffff1673ffffffffffffffffffffffffffffffffffffffff16815260200190815260200160002090508060000160009054906101000a900460ff169150836003811115610a7357610a72610ff6565b5b60ff168160000160009054906101000a900460ff166003811115610a9a57610a99610ff6565b5b60ff1610158015610ab957508060040160009054906101000a900460ff165b9250509250929050565b600084846003811115610ad957610ad8610ff6565b5b846003811115610aec57610aeb610ff6565b5b4260035433604051602001610b0696959493929190611633565b6040516020818303038152906040528051906020012090506040518060c001604052808281526020018673ffffffffffffffffffffffffffffffffffffffff168152602001856003811115610b5e57610b5d610ff6565b5b8152602001846003811115610b7657610b75610ff6565b5b815260200183815260200142815250600160008381526020019081526020016000206000820151816000015560208201518160010160006101000a81548173ffffffffffffffffffffffffffffffffffffffff021916908373ffffffffffffffffffffffffffffffffffffffff16021790555060408201518160010160146101000a81548160ff02191690836003811115610c1457610c13610ff6565b5b021790555060608201518160010160156101000a81548160ff02191690836003811115610c4457610c43610ff6565b5b02179055506080820151816002015560a08201518160030155905050600260008673ffffffffffffffffffffffffffffffffffffffff1673ffffffffffffffffffffffffffffffffffffffff16815260200190815260200160002081908060018154018082558091505060019003906000526020600020016000909190919091505560036000815480929190610cd990611694565b9190505550949350505050565b600080fd5b600073ffffffffffffffffffffffffffffffffffffffff82169050919050565b6000610d1682610ceb565b9050919050565b610d2681610d0b565b8114610d3157600080fd5b50565b600081359050610d4381610d1d565b92915050565b6000819050919050565b610d5c81610d49565b8114610d6757600080fd5b50565b600081359050610d7981610d53565b92915050565b60008060408385031215610d9657610d95610ce6565b5b6000610da485828601610d34565b9250506020610db585828601610d6a565b9150509250929050565b6000819050919050565b610dd281610dbf565b82525050565b6000602082019050610ded6000830184610dc9565b92915050565b600060208284031215610e0957610e08610ce6565b5b6000610e1784828501610d34565b91505092915050565b600081519050919050565b600082825260208201905092915050565b6000819050602082019050919050565b610e5581610dbf565b82525050565b6000610e678383610e4c565b60208301905092915050565b6000602082019050919050565b6000610e8b82610e20565b610e958185610e2b565b9350610ea083610e3c565b8060005b83811015610ed1578151610eb88882610e5b565b9750610ec383610e73565b925050600181019050610ea4565b5085935050505092915050565b60006020820190508181036000830152610ef88184610e80565b905092915050565b60048110610f0d57600080fd5b50565b600081359050610f1f81610f00565b92915050565b610f2e81610dbf565b8114610f3957600080fd5b50565b600081359050610f4b81610f25565b92915050565b600080600080600060a08688031215610f6d57610f6c610ce6565b5b6000610f7b88828901610d34565b9550506020610f8c88828901610f10565b9450506040610f9d88828901610f3c565b9350506060610fae88828901610d6a565b9250506080610fbf88828901610d6a565b9150509295509295909350565b610fd581610d0b565b82525050565b6000602082019050610ff06000830184610fcc565b92915050565b7f4e487b7100000000000000000000000000000000000000000000000000000000600052602160045260246000fd5b6004811061103657611035610ff6565b5b50565b600081905061104782611025565b919050565b600061105782611039565b9050919050565b6110678161104c565b82525050565b61107681610d49565b82525050565b60008115159050919050565b6110918161107c565b82525050565b600060c0820190506110ac600083018961105e565b6110b96020830188610dc9565b6110c6604083018761106d565b6110d3606083018661106d565b6110e06080830185611088565b6110ed60a083018461106d565b979650505050505050565b600060208201905061110d600083018461106d565b92915050565b60006020828403121561112957611128610ce6565b5b600061113784828501610f3c565b91505092915050565b600060c0820190506111556000830189610dc9565b6111626020830188610fcc565b61116f604083018761105e565b61117c606083018661105e565b6111896080830185610dc9565b61119660a083018461106d565b979650505050505050565b600080604083850312156111b8576111b7610ce6565b5b60006111c685828601610d34565b92505060206111d785828601610f10565b9150509250929050565b60006040820190506111f66000830185611088565b611203602083018461105e565b9392505050565b600082825260208201905092915050565b7f496e76616c696420626f72726f77657220616464726573730000000000000000600082015250565b600061125160188361120a565b915061125c8261121b565b602082019050919050565b6000602082019050818103600083015261128081611244565b9050919050565b7f4e6565642045584543555445206c6576656c0000000000000000000000000000600082015250565b60006112bd60128361120a565b91506112c882611287565b602082019050919050565b600060208201905081810360008301526112ec816112b0565b9050919050565b7f4167656e74206e6f742061637469766500000000000000000000000000000000600082015250565b600061132960108361120a565b9150611334826112f3565b602082019050919050565b600060208201905081810360008301526113588161131c565b9050919050565b7f4578636565647320637265646974206c696d6974000000000000000000000000600082015250565b600061139560148361120a565b91506113a08261135f565b602082019050919050565b600060208201905081810360008301526113c481611388565b9050919050565b600060a0820190506113e06000830188610fcc565b6113ed6020830187610fcc565b6113fa604083018661106d565b611407606083018561106d565b611414608083018461106d565b9695505050505050565b60006040820190506114336000830185610fcc565b611440602083018461106d565b9392505050565b7f496e76616c696420616464726573730000000000000000000000000000000000600082015250565b600061147d600f8361120a565b915061148882611447565b602082019050919050565b600060208201905081810360008301526114ac81611470565b9050919050565b7f4f6e6c79206f776e657200000000000000000000000000000000000000000000600082015250565b60006114e9600a8361120a565b91506114f4826114b3565b602082019050919050565b60006020820190508181036000830152611518816114dc565b9050919050565b7f43616e6e6f74206772616e74205245564f4b4544000000000000000000000000600082015250565b600061155560148361120a565b91506115608261151f565b602082019050919050565b6000602082019050818103600083015261158481611548565b9050919050565b7f4e487b7100000000000000000000000000000000000000000000000000000000600052601160045260246000fd5b60006115c582610d49565b91506115d083610d49565b92508282019050808211156115e8576115e761158b565b5b92915050565b6000604082019050611603600083018561105e565b611610602083018461106d565b9392505050565b600060ff82169050919050565b61162d81611617565b82525050565b600060c0820190506116486000830189610fcc565b6116556020830188611624565b6116626040830187611624565b61166f606083018661106d565b61167c608083018561106d565b61168960a0830184610fcc565b979650505050505050565b600061169f82610d49565b91507fffffffffffffffffffffffffffffffffffffffffffffffffffffffffffffffff82036116d1576116d061158b565b5b60018201905091905056fea264697066735822122088fb0be4453d52588127a7cf1d5966946aec98f8225ea63067bea5c565ae6a3764736f6c63430008140033",
  "linkReferences": {},
  "deployedLinkReferences": {}
}