{
  "_format": "hh-sol-artifact-1",
  "contractName": "CeloAuthorityState",
  "sourceName": "contracts/CeloAuthorityState.sol",
  "abi": [
    {
      "inputs": [],
      "stateMutability": "nonpayable",
      "type": "constructor"
    },
    {
      "anonymous": false,
      "inputs": [
        {
          "indexed": true,
          "internalType": "address",
          "name": "agent",
          "type": "address"
        },
        {
          "indexed": false,
          "internalType": "enum CeloAuthorityState.AuthorityLevel",
          "name": "from",
          "type": "uint8"
        },
        {
          "indexed": false,
          "internalType": "enum CeloAuthorityState.AuthorityLevel",
          "name": "to",
          "type": "uint8"
        }
      ],
      "name": "AuthorityDecayed",
      "type": "event"
    },
    {
      "anonymous": false,
      "inputs": [
        {
          "indexed": true,
          "internalType": "address",
          "name": "agent",
          "type": "address"
        },
        {
          "indexed": false,
          "internalType": "enum CeloAuthorityState.AuthorityLevel",
          "name": "level",
          "type": "uint8"
        },
        {
          "indexed": false,
          "internalType": "uint256",
          "name": "creditLimit",
          "type": "uint256"
        }
      ],
      "name": "AuthorityGranted",
      "type": "event"
    },
    {
      "anonymous": false,
      "inputs": [
        {
          "indexed": true,
          "internalType": "address",
          "name": "agent",
          "type": "address"
        },
        {
          "indexed": false,
          "internalType": "bytes32",
          "name": "evidenceRef",
          "type": "bytes32"
        }
      ],
      "name": "AuthorityRevoked",
      "type": "event"
    },
    {
      "anonymous": false,
      "inputs": [
        {
          "indexed": true,
          "internalType": "address",
          "name": "agent",
          "type": "address"
        },
        {
          "indexed": false,
          "internalType": "address",
          "name": "borrower",
          "type": "address"
        },
        {
          "indexed": false,
          "internalType": "uint256",
          "name": "amount",
          "type": "uint256"
        }
      ],
      "name": "MicroLoanIssued",
      "type": "event"
    },
    {
      "inputs": [],
      "name": "CUSD",
      "outputs": [
        {
          "internalType": "address",
          "name": "",
          "type": "address"
        }
      ],
      "stateMutability": "view",
      "type": "function"
    },
    {
      "inputs": [
        {
          "internalType": "address",
          "name": "",
          "type": "address"
        },
        {
          "internalType": "uint256",
          "name": "",
          "type": "uint256"
        }
      ],
      "name": "agentHistory",
      "outputs": [
        {
          "internalType": "bytes32",
          "name": "",
          "type": "bytes32"
        }
      ],
      "stateMutability": "view",
      "type": "function"
    },
    {
      "inputs": [
        {
          "internalType": "address",
          "name": "",
          "type": "address"
        }
      ],
      "name": "authorities",
      "outputs": [
        {
          "internalType": "enum CeloAuthorityState.AuthorityLevel",
          "name": "level",
          "type": "uint8"
        },
        {
          "internalType": "bytes32",
          "name": "scope",
          "type": "bytes32"
        },
        {
          "internalType": "uint256",
          "name": "expiresAt",
          "type": "uint256"
        },
        {
          "internalType": "uint256",
          "name": "lastActivity",
          "type": "uint256"
        },
        {
          "internalType": "bool",
          "name": "isActive",
          "type": "bool"
        },
        {
          "internalType": "uint256",
          "name": "creditLimit",
          "type": "uint256"
        }
      ],
      "stateMutability": "view",
      "type": "function"
    },
    {
      "inputs": [
        {
          "internalType": "address",
          "name": "agent",
          "type": "address"
        },
        {
          "internalType": "enum CeloAuthorityState.AuthorityLevel",
          "name": "required",
          "type": "uint8"
        }
      ],
      "name": "checkAuthority",
      "outputs": [
        {
          "internalType": "bool",
          "name": "hasAuthority",
          "type": "bool"
        },
        {
          "internalType": "enum CeloAuthorityState.AuthorityLevel",
          "name": "current",
          "type": "uint8"
        }
      ],
      "stateMutability": "view",
      "type": "function"
    },
    {
      "inputs": [
        {
          "internalType": "address",
          "name": "agent",
          "type": "address"
        },
        {
          "internalType": "uint256",
          "name": "additionalDuration",
          "type": "uint256"
        }
      ],
      "name": "extendAuthority",
      "outputs": [],
      "stateMutability": "nonpayable",
      "type": "function"
    },
    {
      "inputs": [
        {
          "internalType": "address",
          "name": "agent",
          "type": "address"
        }
      ],
      "name": "getAgentHistory",
      "outputs": [
        {
          "internalType": "bytes32[]",
          "name": "",
          "type": "bytes32[]"
        }
      ],
      "stateMutability": "view",
      "type": "function"
    },
    {
      "inputs": [
        {
          "internalType": "address",
          "name": "agent",
          "type": "address"
        },
        {
          "internalType": "enum CeloAuthorityState.AuthorityLevel",
          "name": "level",
          "type": "uint8"
        },
        {
          "internalType": "bytes32",
          "name": "scope",
          "type": "bytes32"
        },
        {
          "internalType": "uint256",
          "name": "duration",
          "type": "uint256"
        },
        {
          "internalType": "uint256",
          "name": "creditLimit",
          "type": "uint256"
        }
      ],
      "name": "grantAuthority",
      "outputs": [
        {
          "internalType": "bytes32",
          "name": "transitionId",
          "type": "bytes32"
        }
      ],
      "stateMutability": "nonpayable",
      "type": "function"
    },
    {
      "inputs": [
        {
          "internalType": "address",
          "name": "agent",
          "type": "address"
        },
        {
          "internalType": "uint256",
          "name": "warningThreshold",
          "type": "uint256"
        }
      ],
      "name": "isAuthorityExpiring",
      "outputs": [
        {
          "internalType": "bool",
          "name": "isExpiring",
          "type": "bool"
        },
        {
          "internalType": "uint256",
          "name": "timeRemaining",
          "type": "uint256"
        }
      ],
      "stateMutability": "view",
      "type": "function"
    },
    {
      "inputs": [
        {
          "internalType": "address",
          "name": "borrower",
          "type": "address"
        },
        {
          "internalType": "uint256",
          "name": "amount",
          "type": "uint256"
        }
      ],
      "name": "issueMicroLoan",
      "outputs": [
        {
          "internalType": "bytes32",
          "name": "loanId",
          "type": "bytes32"
        }
      ],
      "stateMutability": "nonpayable",
      "type": "function"
    },
    {
      "inputs": [],
      "name": "owner",
      "outputs": [
        {
          "internalType": "address",
          "name": "",
          "type": "address"
        }
      ],
      "stateMutability": "view",
      "type": "function"
    },
    {
      "inputs": [
        {
          "internalType": "address",
          "name": "agent",
          "type": "address"
        }
      ],
      "name": "revokeAuthority",
      "outputs": [],
      "stateMutability": "nonpayable",
      "type": "function"
    },
    {
      "inputs": [],
      "name": "totalTransitions",
      "outputs": [
        {
          "internalType": "uint256",
          "name": "",
          "type": "uint256"
        }
      ],
      "stateMutability": "view",
      "type": "function"
    },
    {
      "inputs": [
        {
          "internalType": "address",
          "name": "newOwner",
          "type": "address"
        }
      ],
      "name": "transferOwnership",
      "outputs": [],
      "stateMutability": "nonpayable",
      "type": "function"
    },
    {
      "inputs": [
        {
          "internalType": "bytes32",
          "name": "",
          "type": "bytes32"
        }
      ],
      "name": "transitions",
      "outputs": [
        {
          "internalType": "bytes32",
          "name": "id",
          "type": "bytes32"
        },
        {
          "internalType": "address",
          "name": "agent",
          "type": "address"
        },
        {
          "internalType": "enum CeloAuthorityState.AuthorityLevel",
          "name": "fromLevel",
          "type": "uint8"
        },
        {
          "internalType": "enum CeloAuthorityState.AuthorityLevel",
          "name": "toLevel",
          "type": "uint8"
        },
        {
          "internalType": "bytes32",
          "name": "evidenceRef",
          "type": "bytes32"
        },
        {
          "internalType": "uint256",
          "name": "timestamp",
          "type": "uint256"
        }
      ],
      "stateMutability": "view",
      "type": "function"
    },
    {
      "inputs": [
        {
          "internalType": "address",
          "name": "agent",
          "type": "address"
        },
        {
          "internalType": "uint256",
          "name": "newLimit",
          "type": "uint256"
        }
      ],
      "name": "updateCreditLimit",
      "outputs": [],
      "stateMutability": "nonpayable",
      "type": "function"
    }
  ],
  "bytecode": "0x608060405234801561001057600080fd5b5033600460006101000a81548173ffffffffffffffffffffffffffffffffffffffff021916908373ffffffffffffffffffffffffffffffffffffffff160217905550612013806100616000396000f3fe608060405234801561001057600080fd5b50600436106100f55760003560e01c80638da5cb5b11610097578063bc28d95511610066578063bc28d955146102b2578063c6223c89146102e7578063e05472df14610303578063f2fde38b14610334576100f5565b80638da5cb5b1461022557806391223d6914610243578063a34c360214610278578063b214b72d14610294576100f5565b806350dd67f8116100d357806350dd67f81461017657806363a6d342146101a757806365a5854a146101d7578063758316c914610207576100f5565b80632aeb8f22146100fa578063447e4b8a14610116578063454834eb14610146575b600080fd5b610114600480360381019061010f9190611515565b610350565b005b610130600480360381019061012b9190611578565b610525565b60405161013d91906115d1565b60405180910390f35b610160600480360381019061015b9190611515565b610770565b60405161016d91906116aa565b60405180910390f35b610190600480360381019061018b9190611578565b610876565b60405161019e9291906116f6565b60405180910390f35b6101c160048036038101906101bc9190611770565b610910565b6040516101ce91906115d1565b60405180910390f35b6101f160048036038101906101ec9190611578565b610bbe565b6040516101fe91906115d1565b60405180910390f35b61020f610bef565b60405161021c91906117fa565b60405180910390f35b61022d610c07565b60405161023a91906117fa565b60405180910390f35b61025d60048036038101906102589190611515565b610c2d565b60405161026f9695949392919061188c565b60405180910390f35b610292600480360381019061028d9190611578565b610c83565b005b61029c610e13565b6040516102a991906118ed565b60405180910390f35b6102cc60048036038101906102c79190611908565b610e19565b6040516102de96959493929190611935565b60405180910390f35b61030160048036038101906102fc9190611578565b610e8f565b005b61031d60048036038101906103189190611996565b611021565b60405161032b9291906119d6565b60405180910390f35b61034e60048036038101906103499190611515565b61114c565b005b600460009054906101000a900473ffffffffffffffffffffffffffffffffffffffff1673ffffffffffffffffffffffffffffffffffffffff163373ffffffffffffffffffffffffffffffffffffffff16146103e0576040517f08c379a00000000000000000000000000000000000000000000000000000000081526004016103d790611a5c565b60405180910390fd5b60008060008373ffffffffffffffffffffffffffffffffffffffff1673ffffffffffffffffffffffffffffffffffffffff16815260200190815260200160002090508060040160009054906101000a900460ff16610473576040517f08c379a000000000000000000000000000000000000000000000000000000000815260040161046a90611ac8565b60405180910390fd5b60008160000160006101000a81548160ff0219169083600381111561049b5761049a611815565b5b021790555060008160040160006101000a81548160ff021916908315150217905550600081600201819055504281600301819055508173ffffffffffffffffffffffffffffffffffffffff167f102a149683e4a181a592465fbd8fc931ef87127eaf7614ee274bd30a149fb38d6000801b60405161051991906115d1565b60405180910390a25050565b60008073ffffffffffffffffffffffffffffffffffffffff168373ffffffffffffffffffffffffffffffffffffffff1603610595576040517f08c379a000000000000000000000000000000000000000000000000000000000815260040161058c90611b34565b60405180910390fd5b60008060003373ffffffffffffffffffffffffffffffffffffffff1673ffffffffffffffffffffffffffffffffffffffff16815260200190815260200160002090506003808111156105ea576105e9611815565b5b8160000160009054906101000a900460ff16600381111561060e5761060d611815565b5b1461064e576040517f08c379a000000000000000000000000000000000000000000000000000000000815260040161064590611ba0565b60405180910390fd5b8060040160009054906101000a900460ff1661069f576040517f08c379a000000000000000000000000000000000000000000000000000000000815260040161069690611ac8565b60405180910390fd5b80600501548311156106e6576040517f08c379a00000000000000000000000000000000000000000000000000000000081526004016106dd90611c0c565b60405180910390fd5b33848442600354604051602001610701959493929190611c2c565b6040516020818303038152906040528051906020012091503373ffffffffffffffffffffffffffffffffffffffff167fdb1dba94adbeefdd86c48588208ff7676cd9357b8388f555ae3203467c81cad48585604051610761929190611c7f565b60405180910390a25092915050565b6060600073ffffffffffffffffffffffffffffffffffffffff168273ffffffffffffffffffffffffffffffffffffffff16036107e1576040517f08c379a00000000000000000000000000000000000000000000000000000000081526004016107d890611cf4565b60405180910390fd5b600260008373ffffffffffffffffffffffffffffffffffffffff1673ffffffffffffffffffffffffffffffffffffffff16815260200190815260200160002080548060200260200160405190810160405280929190818152602001828054801561086a57602002820191906000526020600020905b815481526020019060010190808311610856575b50505050509050919050565b60008060008060008673ffffffffffffffffffffffffffffffffffffffff1673ffffffffffffffffffffffffffffffffffffffff16815260200190815260200160002090508060040160009054906101000a900460ff1615806108dd575060008160020154145b156108ef576000809250925050610909565b4281600201546108ff9190611d43565b9150838211159250505b9250929050565b6000600460009054906101000a900473ffffffffffffffffffffffffffffffffffffffff1673ffffffffffffffffffffffffffffffffffffffff163373ffffffffffffffffffffffffffffffffffffffff16146109a2576040517f08c379a000000000000000000000000000000000000000000000000000000000815260040161099990611a5c565b60405180910390fd5b600073ffffffffffffffffffffffffffffffffffffffff168673ffffffffffffffffffffffffffffffffffffffff1603610a11576040517f08c379a0000000000000000000000000000000000000000000000000000000008152600401610a0890611cf4565b60405180910390fd5b60006003811115610a2557610a24611815565b5b856003811115610a3857610a37611815565b5b03610a78576040517f08c379a0000000000000000000000000000000000000000000000000000000008152600401610a6f90611dc3565b60405180910390fd5b60008060008873ffffffffffffffffffffffffffffffffffffffff1673ffffffffffffffffffffffffffffffffffffffff1681526020019081526020016000209050610ada878260000160009054906101000a900460ff16886000801b61128f565b9150858160000160006101000a81548160ff02191690836003811115610b0357610b02611815565b5b021790555084816001018190555060008411610b20576000610b2d565b8342610b2c9190611de3565b5b816002018190555042816003018190555060018160040160006101000a81548160ff0219169083151502179055508281600501819055508673ffffffffffffffffffffffffffffffffffffffff167f5ef6f5aa214280c4bf6e58379b1f69f0e4e5fbdb72d902c3371eafebd93b7ce98785604051610bac929190611e17565b60405180910390a25095945050505050565b60026020528160005260406000208181548110610bda57600080fd5b90600052602060002001600091509150505481565b73874069fa1eb16d44d622f2e0ca25eea172369bc181565b600460009054906101000a900473ffffffffffffffffffffffffffffffffffffffff1681565b60006020528060005260406000206000915090508060000160009054906101000a900460ff16908060010154908060020154908060030154908060040160009054906101000a900460ff16908060050154905086565b600460009054906101000a900473ffffffffffffffffffffffffffffffffffffffff1673ffffffffffffffffffffffffffffffffffffffff163373ffffffffffffffffffffffffffffffffffffffff1614610d13576040517f08c379a0000000000000000000000000000000000000000000000000000000008152600401610d0a90611a5c565b60405180910390fd5b60008060008473ffffffffffffffffffffffffffffffffffffffff1673ffffffffffffffffffffffffffffffffffffffff16815260200190815260200160002090508060040160009054906101000a900460ff16610da6576040517f08c379a0000000000000000000000000000000000000000000000000000000008152600401610d9d90611ac8565b60405180910390fd5b6000816002015411610ded576040517f08c379a0000000000000000000000000000000000000000000000000000000008152600401610de490611e8c565b60405180910390fd5b818160020154610dfd9190611de3565b8160020181905550428160030181905550505050565b60035481565b60016020528060005260406000206000915090508060000154908060010160009054906101000a900473ffffffffffffffffffffffffffffffffffffffff16908060010160149054906101000a900460ff16908060010160159054906101000a900460ff16908060020154908060030154905086565b600460009054906101000a900473ffffffffffffffffffffffffffffffffffffffff1673ffffffffffffffffffffffffffffffffffffffff163373ffffffffffffffffffffffffffffffffffffffff1614610f1f576040517f08c379a0000000000000000000000000000000000000000000000000000000008152600401610f1690611a5c565b60405180910390fd5b60008060008473ffffffffffffffffffffffffffffffffffffffff1673ffffffffffffffffffffffffffffffffffffffff16815260200190815260200160002090508060040160009054906101000a900460ff16610fb2576040517f08c379a0000000000000000000000000000000000000000000000000000000008152600401610fa990611ac8565b60405180910390fd5b8181600501819055508273ffffffffffffffffffffffffffffffffffffffff167f5ef6f5aa214280c4bf6e58379b1f69f0e4e5fbdb72d902c3371eafebd93b7ce98260000160009054906101000a900460ff1684604051611014929190611e17565b60405180910390a2505050565b600080600073ffffffffffffffffffffffffffffffffffffffff168473ffffffffffffffffffffffffffffffffffffffff1603611093576040517f08c379a000000000000000000000000000000000000000000000000000000000815260040161108a90611cf4565b60405180910390fd5b60008060008673ffffffffffffffffffffffffffffffffffffffff1673ffffffffffffffffffffffffffffffffffffffff16815260200190815260200160002090508060000160009054906101000a900460ff1691508360038111156110fc576110fb611815565b5b60ff168160000160009054906101000a900460ff16600381111561112357611122611815565b5b60ff161015801561114257508060040160009054906101000a900460ff165b9250509250929050565b600460009054906101000a900473ffffffffffffffffffffffffffffffffffffffff1673ffffffffffffffffffffffffffffffffffffffff163373ffffffffffffffffffffffffffffffffffffffff16146111dc576040517f08c379a00000000000000000000000000000000000000000000000000000000081526004016111d390611a5c565b60405180910390fd5b600073ffffffffffffffffffffffffffffffffffffffff168173ffffffffffffffffffffffffffffffffffffffff160361124b576040517f08c379a000000000000000000000000000000000000000000000000000000000815260040161124290611ef8565b60405180910390fd5b80600460006101000a81548173ffffffffffffffffffffffffffffffffffffffff021916908373ffffffffffffffffffffffffffffffffffffffff16021790555050565b6000848460038111156112a5576112a4611815565b5b8460038111156112b8576112b7611815565b5b42600354336040516020016112d296959493929190611f34565b6040516020818303038152906040528051906020012090506040518060c001604052808281526020018673ffffffffffffffffffffffffffffffffffffffff16815260200185600381111561132a57611329611815565b5b815260200184600381111561134257611341611815565b5b815260200183815260200142815250600160008381526020019081526020016000206000820151816000015560208201518160010160006101000a81548173ffffffffffffffffffffffffffffffffffffffff021916908373ffffffffffffffffffffffffffffffffffffffff16021790555060408201518160010160146101000a81548160ff021916908360038111156113e0576113df611815565b5b021790555060608201518160010160156101000a81548160ff021916908360038111156114105761140f611815565b5b02179055506080820151816002015560a08201518160030155905050600260008673ffffffffffffffffffffffffffffffffffffffff1673ffffffffffffffffffffffffffffffffffffffff168152602001908152602001600020819080600181540180825580915050600190039060005260206000200160009091909190915055600360008154809291906114a590611f95565b9190505550949350505050565b600080fd5b600073ffffffffffffffffffffffffffffffffffffffff82169050919050565b60006114e2826114b7565b9050919050565b6114f2816114d7565b81146114fd57600080fd5b50565b60008135905061150f816114e9565b92915050565b60006020828403121561152b5761152a6114b2565b5b600061153984828501611500565b91505092915050565b6000819050919050565b61155581611542565b811461156057600080fd5b50565b6000813590506115728161154c565b92915050565b6000806040838503121561158f5761158e6114b2565b5b600061159d85828601611500565b92505060206115ae85828601611563565b9150509250929050565b6000819050919050565b6115cb816115b8565b82525050565b60006020820190506115e660008301846115c2565b92915050565b600081519050919050565b600082825260208201905092915050565b6000819050602082019050919050565b611621816115b8565b82525050565b60006116338383611618565b60208301905092915050565b6000602082019050919050565b6000611657826115ec565b61166181856115f7565b935061166c83611608565b8060005b8381101561169d5781516116848882611627565b975061168f8361163f565b925050600181019050611670565b5085935050505092915050565b600060208201905081810360008301526116c4818461164c565b905092915050565b60008115159050919050565b6116e1816116cc565b82525050565b6116f081611542565b82525050565b600060408201905061170b60008301856116d8565b61171860208301846116e7565b9392505050565b6004811061172c57600080fd5b50565b60008135905061173e8161171f565b92915050565b61174d816115b8565b811461175857600080fd5b50565b60008135905061176a81611744565b92915050565b600080600080600060a0868803121561178c5761178b6114b2565b5b600061179a88828901611500565b95505060206117ab8882890161172f565b94505060406117bc8882890161175b565b93505060606117cd88828901611563565b92505060806117de88828901611563565b9150509295509295909350565b6117f4816114d7565b82525050565b600060208201905061180f60008301846117eb565b92915050565b7f4e487b7100000000000000000000000000000000000000000000000000000000600052602160045260246000fd5b6004811061185557611854611815565b5b50565b600081905061186682611844565b919050565b600061187682611858565b9050919050565b6118868161186b565b82525050565b600060c0820190506118a1600083018961187d565b6118ae60208301886115c2565b6118bb60408301876116e7565b6118c860608301866116e7565b6118d560808301856116d8565b6118e260a08301846116e7565b979650505050505050565b600060208201905061190260008301846116e7565b92915050565b60006020828403121561191e5761191d6114b2565b5b600061192c8482850161175b565b91505092915050565b600060c08201905061194a60008301896115c2565b61195760208301886117eb565b611964604083018761187d565b611971606083018661187d565b61197e60808301856115c2565b61198b60a08301846116e7565b979650505050505050565b600080604083850312156119ad576119ac6114b2565b5b60006119bb85828601611500565b92505060206119cc8582860161172f565b9150509250929050565b60006040820190506119eb60008301856116d8565b6119f8602083018461187d565b9392505050565b600082825260208201905092915050565b7f4f6e6c79206f776e657200000000000000000000000000000000000000000000600082015250565b6000611a46600a836119ff565b9150611a5182611a10565b602082019050919050565b60006020820190508181036000830152611a7581611a39565b9050919050565b7f4167656e74206e6f742061637469766500000000000000000000000000000000600082015250565b6000611ab26010836119ff565b9150611abd82611a7c565b602082019050919050565b60006020820190508181036000830152611ae181611aa5565b9050919050565b7f496e76616c696420626f72726f77657220616464726573730000000000000000600082015250565b6000611b1e6018836119ff565b9150611b2982611ae8565b602082019050919050565b60006020820190508181036000830152611b4d81611b11565b9050919050565b7f4e6565642045584543555445206c6576656c0000000000000000000000000000600082015250565b6000611b8a6012836119ff565b9150611b9582611b54565b602082019050919050565b60006020820190508181036000830152611bb981611b7d565b9050919050565b7f4578636565647320637265646974206c696d6974000000000000000000000000600082015250565b6000611bf66014836119ff565b9150611c0182611bc0565b602082019050919050565b60006020820190508181036000830152611c2581611be9565b9050919050565b600060a082019050611c4160008301886117eb565b611c4e60208301876117eb565b611c5b60408301866116e7565b611c6860608301856116e7565b611c7560808301846116e7565b9695505050505050565b6000604082019050611c9460008301856117eb565b611ca160208301846116e7565b9392505050565b7f496e76616c696420616464726573730000000000000000000000000000000000600082015250565b6000611cde600f836119ff565b9150611ce982611ca8565b602082019050919050565b60006020820190508181036000830152611d0d81611cd1565b9050919050565b7f4e487b7100000000000000000000000000000000000000000000000000000000600052601160045260246000fd5b6000611d4e82611542565b9150611d5983611542565b9250828203905081811115611d7157611d70611d14565b5b92915050565b7f43616e6e6f74206772616e74205245564f4b4544000000000000000000000000600082015250565b6000611dad6014836119ff565b9150611db882611d77565b602082019050919050565b60006020820190508181036000830152611ddc81611da0565b9050919050565b6000611dee82611542565b9150611df983611542565b9250828201905080821115611e1157611e10611d14565b5b92915050565b6000604082019050611e2c600083018561187d565b611e3960208301846116e7565b9392505050565b7f417574686f7269747920646f6573206e6f742065787069726500000000000000600082015250565b6000611e766019836119ff565b9150611e8182611e40565b602082019050919050565b60006020820190508181036000830152611ea581611e69565b9050919050565b7f496e76616c6964206e6577206f776e6572000000000000000000000000000000600082015250565b6000611ee26011836119ff565b9150611eed82611eac565b602082019050919050565b60006020820190508181036000830152611f1181611ed5565b9050919050565b600060ff82169050919050565b611f2e81611f18565b82525050565b600060c082019050611f4960008301896117eb565b611f566020830188611f25565b611f636040830187611f25565b611f7060608301866116e7565b611f7d60808301856116e7565b611f8a60a08301846117eb565b979650505050505050565b6000611fa082611542565b91507fffffffffffffffffffffffffffffffffffffffffffffffffffffffffffffffff8203611fd257611fd1611d14565b5b60018201905091905056fea2646970667358221220f44e605042007c6701678288cc2ef858398e8047035c0831969e5e276ccddc7064736f6c63430008140033",
  "linkReferences": {},
  "deployedLinkReferences": {}
}